:020000040800F2
:10000000F81E0020890100088D420008BD26000866
:1000100089420008A5030008B5460008000000005A
:100020000000000000000000000000008143000804
:10003000A90300080000000001430008094500086A
:10004000A3010008A3010008A3010008A301000800
:10005000A3010008A3010008A3010008A3010008F0
:10006000A3010008A3010008A3010008A3010008E0
:10007000A3010008A3010008A3010008A3010008D0
:10008000A3010008A3010008A3010008A3010008C0
:10009000A3010008A3010008A3010008A3010008B0
:1000A000A3010008A3010008A3010008A3010008A0
:1000B000A3010008A3010008B5450008D1260008E7
:1000C000C1260008A3010008A3010008A30100083D
:1000D000A3010008A3010008A3010008A301000870
:1000E000A3010008A3010008A301000800F002F822
:1000F00000F03AF80AA090E8000C82448344AAF188
:100100000107DA4501D100F02FF8AFF2090EBAE885
:100110000F0013F0010F18BFFB1A43F0010318473B
:100120000086000020860000103A24BF78C878C1FD
:10013000FAD8520724BF30C830C144BF04680C60ED
:10014000704700000023002400250026103A28BF35
:1001500078C1FBD8520728BF30C148BF0B60704739
:100160001FB51FBD10B510BD00F0D7F81146FFF741
:10017000F7FF05F059FB00F0F5F803B4FFF7F2FFC5
:1001800003BC00F0FDF8000009488047094800471B
:10019000FEE7FEE7FEE7FEE7FEE7FEE7FEE7FEE737
:1001A000FEE7FEE704480549054A064B7047000094
:1001B000B1450008ED000008F8180020F81E0020E6
:1001C000F81A0020F81A0020032A40F2308010F0BC
:1001D000030C00F0158011F8013BBCF1020F6244E2
:1001E00098BF11F801CB00F8013B38BF11F8013B73
:1001F000A2F1040298BF00F801CB38BF00F8013B20
:1002000011F0030300F05780083AC0F0088051F85D
:10021000043B083A51F804CBA0E80810F5E7121D9A
:100220005CBF51F8043B40F8043BAFF30080D207B9
:1002300024BF11F8013B11F801CB48BF11F8012B85
:1002400024BF00F8013B00F801CB48BF00F8012BA8
:10025000704702F0FF0343EA032242EA024200F041
:1002600002B84FF0000200B5134694469646203976
:1002700022BFA0E80C50A0E80C50B1F12001BFF45F
:10028000F7AF090728BFA0E80C5048BF0CC05DF8C5
:1002900004EB890028BF40F8042B08BF704748BF13
:1002A00020F8022B11F0804F18BF00F8012B704787
:1002B00070477047704710B5203AC0F00B80B1E826
:1002C0001850A0E81850B1E81850A0E81850203A8B
:1002D000BFF4F5AF5FEA027C24BFB1E81850A0E894
:1002E000185044BF18C918C0BDE810405FEA827CAE
:1002F00024BF51F8043B40F8043B08BF7047D207C5
:1003000028BF31F8023B48BF11F8012B28BF20F865
:10031000023B48BF00F8012B7047754600F02CF8EF
:10032000AE4605006946534620F00700854618B0E2
:1003300020B5FFF737FFBDE820404FF000064FF033
:1003400000074FF000084FF0000BAC46ACE8C009C6
:10035000ACE8C009ACE8C009ACE8C00921F007016D
:100360008D46704710B50446AFF300802046BDE8C7
:100370001040FFF702BF000000487047F80000205F
:1003800001491820ABBEFEE72600020070470000BE
:1003900081B00090009840F21061C2F20001086044
:1003A00001B07047FFE7FEE77047000081B0EFF350
:1003B000108072B60090FFE7FEE7000080B588B0BD
:1003C000079000208DF81B00079890F82100022864
:1003D00007D0FFE707990420886301208DF81B00F0
:1003E00076E007980168086820F00E00086007981A
:1003F0000168086820F0010008600798006808217B
:10040000C4F20201884203D1FFE70120059047E0D2
:10041000079800681C21C4F20201884203D1FFE75B
:100420001020049039E0079800683021C4F20201DE
:10043000884204D1FFE74FF4807003902AE00798C8
:1004400000684421C4F20201884204D1FFE74FF45E
:10045000805002901BE0079800685821C4F2020106
:10046000884204D1FFE74FF4803001900CE00798F8
:1004700001686C22C4F202024FF08070914208BF02
:100480004FF480100190FFE701980290FFE7029877
:100490000390FFE703980490FFE704980590FFE7B7
:1004A00005980421C4F2020108600799012081F82F
:1004B0002100FFE70799002081F82000FFE7079857
:1004C000406B20B1FFE70798416B8847FFE7FFE7E4
:1004D0009DF81B0008B080BD81B00090009890F896
:1004E000210001B07047000090B00F900E910020E5
:1004F0000D900990FFE70E9800680D99C8400028FC
:1005000000F07F81FFE70D99012088400C900E9844
:1005100000680C9908400B900B980C99884240F0A9
:100520006C81FFE70E9840680590002851D0FFE7E6
:10053000059801283AD0FFE7059802283FD0FFE749
:10054000059803285FD0FFE70598112832D0FFE710
:100550000598122838D0FFE705980021C1F2110153
:10056000884236D0FFE705980021C1F21201884287
:100570002FD0FFE705980021C1F22101884228D041
:10058000FFE705980021C1F22201884221D0FFE750
:1005900005980021C1F2310188421AD0FFE7059881
:1005A0000021C1F23201884213D02FE00E98C068BA
:1005B00009902CE00E98C0680430099027E00E984E
:1005C000C0680830099022E00E98C0680C3009908D
:1005D0001DE00E98806818B9FFE70420099011E02B
:1005E0000E988068012806D1FFE7082009900C9832
:1005F0000F99086105E0082009900C980F9948614F
:10060000FFE7FFE703E00020099000E0FFE70B9819
:10061000FF2803D8FFE70F98049003E00F980430F9
:100620000490FFE7049808900B98FF2804D8FFE790
:100630000D988000039006E00D996FF01F0000EB0D
:1006400081000390FFE70398079008980068079AD5
:100650000F21914088430999914008430899086007
:100660000E98C079C006002840F1C680FFE7FFE77A
:1006700041F21800C4F20200016841F0010101607A
:10068000006800F0010006900698FFE70D9820F042
:1006900003000821C4F2010140580A900D9800F0AF
:1006A000030081000F2000FA01F10A9888430A90A4
:1006B0000F9840F60001C4F20101884203D1FFE720
:1006C0000020029026E00F9840F60041C4F201019C
:1006D000884203D1FFE70120019018E00F9841F212
:1006E0000001C4F20101884203D1FFE7022000901B
:1006F0000AE00F9941F20042C4F201020420914243
:1007000008BF03200090FFE700980190FFE70198E1
:100710000290FFE702980D9901F00301890000FAA9
:1007200001F10A9808430A900A980D9921F00301F3
:100730000822C4F2010288500E988079C00748B19F
:10074000FFE70B9A40F20041C4F201010868104330
:10075000086008E00B9A40F20041C4F20101086809
:1007600090430860FFE70E9880798007002809D53C
:10077000FFE70B9A40F20441C4F2010108681043FC
:10078000086008E00B9A40F20441C4F201010868D5
:1007900090430860FFE70E988079C006002809D5CD
:1007A000FFE70B9A40F20841C4F2010108681043C8
:1007B000086008E00B9A40F20841C4F201010868A1
:1007C00090430860FFE70E9880798006002809D5DD
:1007D000FFE70B9A40F20C41C4F201010868104394
:1007E000086008E00B9A40F20C41C4F2010108686D
:1007F00090430860FFE7FFE7FFE70D9801300D9099
:1008000079E610B07047000082B00190ADF8021098
:1008100001988068BDF80210084204D0FFE701206B
:100820008DF8010003E000208DF80100FFE79DF83E
:10083000010002B07047000083B00290ADF80610CE
:100840000298C0680090009ABDF8060002EA000114
:10085000904340EA01400299086103B070470000EC
:1008600082B00190ADF802108DF801209DF80100D2
:1008700028B1FFE7BDF802000199086105E0BDF865
:100880000200000401990861FFE702B07047000010
:1008900041F2D870C2F200000068704781B0009049
:1008A00001B0704782B001908DF80310ADF80020C0
:1008B00002B0704780B58AB0099009980068406915
:1008C00004900998006840680390002002900998FD
:1008D00090F83E008DF807009DF81100C007A8B100
:1008E000FFE79DF80D00C00780B1FFE7029840F0D8
:1008F00001000290099801686FF4807048610998BE
:100900000168086840F400400860FFE79DF81100A6
:1009100000F002010020B0EB510F0FD0FFE79DF86F
:100920000D00C00750B1FFE7029840F002000290AE
:10093000099801686FF400704861FFE79DF81100A5
:1009400000F004010020B0EB910F50D0FFE79DF8BC
:100950000D00C00700284AD0FFE79DF807008DF87A
:1009600023000998408D0790099890F83D008DF874
:100970001B000998006B05909DF8230020281AD1D0
:10098000FFE70798B8B9FFE79DF81B0021280ED0B4
:10099000FFE79DF81B00292809D0FFE79DF81B0001
:1009A000282808D1FFE70598212804D1FFE70998F6
:1009B00003F00AF81AE0099801686FF48060486152
:1009C000029840F0040002909DF80700102805D01E
:1009D000FFE79DF80700402807D1FFE70998016865
:1009E000086840F400700860FFE7FFE7FFE79DF844
:1009F000110000F008010020B0EBD10F0FD0FFE78D
:100A00009DF80D00C00750B1FFE7029840F00800C4
:100A10000290099801686FF400604861FFE702984E
:100A200048B1FFE7029A0999086C104308640998D5
:100A300001F01CFFFFE70AB080BD000080B588B060
:100A40000790002005900798006840680490079878
:100A5000C06A0390079890F83E008DF80B00079845
:100A600090F83D008DF80A009DF80B00102806D084
:100A7000FFE79DF80B00402840F00081FFE7079852
:100A8000006880690590079800684069069006989C
:100A9000C007A0B9FFE703990120B1F52A0F019023
:100AA00008D0FFE7039800F1AC40B0FA80F04009AD
:100AB0000190FFE70198C00708B1FFE7A1E10698A0
:100AC000C00780B1FFE79DF8110000F0020100208F
:100AD000B0EB510F07D0FFE7079801F001FE079830
:100AE00002F082FCC9E09DF8180000F00801002027
:100AF000B0EBD10F0DD0FFE79DF8110000F002011F
:100B00000020B0EB510F04D0FFE7079802F09CFAE9
:100B1000B2E09DF8180000F002010020B0EB510F88
:100B20000DD0FFE79DF8110000F002010020B0EBAE
:100B3000510F04D0FFE7079802F0AAFA9BE09DF856
:100B4000140000F004010020B0EB910F50D0FFE73B
:100B500007980068406800F40060B0F5006F46D068
:100B6000FFE79DF818100020B0EBD11F16D0FFE76B
:100B70009DF8110000F004010020B0EB910F0DD0A2
:100B8000FFE79DF8180000F004010020B0EB910F82
:100B900004D1FFE7079802F0B7F927E09DF81800A5
:100BA00000F004010020B0EB910F1DD0FFE79DF88D
:100BB000110000F002010020B0EB510F14D0FFE74C
:100BC0009DF80A00212804D1FFE7079802F02CF9CC
:100BD00009E09DF80B00402804D1FFE7079802F0D8
:100BE0007BFCFFE7FFE700E0FFE7FFE7FFE741E00F
:100BF00007980068406800F40060B0F5006F38D0D6
:100C0000FFE79DF8180000F040010020B0EB911FB5
:100C100016D0FFE79DF8110000F004010020B0EBB2
:100C2000910F0DD0FFE79DF8180000F0040100209F
:100C3000B0EB910F04D1FFE7079802F057F817E0E7
:100C40009DF8180000F004010020B0EB910F0DD0CA
:100C5000FFE79DF8110000F002010020B0EB510FFA
:100C600004D0FFE7079801F071FF00E0FFE7FFE71E
:100C7000FFE7FFE7FFE7FFE7FFE7C2E00798006C49
:100C800028B1FFE7079800684069069008E00798D8
:100C90000068806905900798006840690690FFE742
:100CA0009DF8180000F002010020B0EB510F17D0A2
:100CB000FFE79DF8110000F002010020B0EB510F9A
:100CC0000ED0FFE70798006C28B1FFE7079800688F
:100CD00080690590FFE70798059902F01DFE8FE0F7
:100CE0009DF8180000F010010020B0EB111F0DD08E
:100CF000FFE79DF8110000F002010020B0EB510F5A
:100D000004D0FFE7079802F0CFFE78E09DF80A00D4
:100D1000212805D0FFE79DF80A00292836D1FFE7F2
:100D20009DF818100020B0EBD11F16D0FFE79DF8FA
:100D3000110000F004010020B0EB910F0DD0FFE78F
:100D40009DF8180000F004010020B0EB910F04D1D1
:100D5000FFE7079802F0AAFD17E09DF8180000F0E1
:100D600004010020B0EB910F0DD0FFE79DF81100BA
:100D700000F002010020B0EB510F04D0FFE707980C
:100D800002F07EFD00E0FFE7FFE737E09DF8180086
:100D900000F040010020B0EB911F16D0FFE79DF856
:100DA000110000F004010020B0EB910F0DD0FFE71F
:100DB0009DF8180000F004010020B0EB910F04D161
:100DC000FFE7079802F024FD17E09DF8180000F0F7
:100DD00004010020B0EB910F0DD0FFE79DF811004A
:100DE00000F002010020B0EB510F04D0FFE707989C
:100DF00002F0F6FC00E0FFE7FFE7FFE7FFE7FFE7B1
:100E0000FFE708B080BD000081B0009001B07047DE
:100E100080B58EB00C900C9820B9FFE701208DF8BA
:100E2000370043E10C9890F83D0040B9FFE70C997A
:100E3000002081F83C000C9800F0B4FBFFE70C990F
:100E4000242081F83D000C980168086820F001001A
:100E500008600C980168086840F4004008600C982D
:100E60000168086820F40040086000F053FE0A9012
:100E70000C98406848F2A061C0F2010188420BD88A
:100E8000FFE70A9948F28042C0F21E020020914218
:100E900038BF012009900AE00A9940F60012C0F21A
:100EA0003D020020914238BF01200990FFE70998D8
:100EB000012804D1FFE701208DF83700F6E00A98F9
:100EC0004DF68361C4F21B31A0FB0110800C0B9026
:100ED0000C980068406820F03F000B9908430C997B
:100EE000096848600C980068006A20F03F0008908C
:100EF0000C98406848F2A061C0F20101884204D811
:100F0000FFE70B98013007900EE00B984FF49671B5
:100F1000484344F6D351C1F26201A0FB0101012014
:100F200000EB91100790FFE70898079908430C9988
:100F3000096808620C980068C0694CF6FF71884324
:100F400006900C98406848F2A061C0F20101884206
:100F50001FD8FFE70A9801380C9949684900B0FB8F
:100F6000F1F001306FF31F30032803D8FFE70420AE
:100F700005900BE00A9801380C9949684900B0FBCC
:100F8000F1F001306FF31F300590FFE705980490F2
:100F90004CE00C98806868B9FFE70A9801380C9912
:100FA000496801EB4101B0FBF1F001306FF31F30F4
:100FB00003900DE00A9801380C99496819225143B1
:100FC000B0FBF1F00130042161F31F300390FFE723
:100FD0000398000518B9FFE70120029023E00C9860
:100FE000806868B9FFE70A9801380C99496801EBF5
:100FF0004101B0FBF1F001306FF31F3001900DE0C3
:101000000A9801380C99496819225143B0FBF1F054
:101010000130042161F31F300190FFE7019840F493
:1010200000400290FFE702980490FFE706980499B9
:1010300008430C990968C8610C980068006820F0A2
:10104000C0000C9B1968DA691B6A1A4310430860D8
:101050000C980068806848F2FF3188430C9A116848
:10106000D36812691A43104388600C980068C068FE
:1010700020F0FF000C9B19685A699B691A431043C2
:10108000C8600C980168086840F0010008600C997D
:10109000002008640C9A202182F83D100C99086306
:1010A0000C9981F83E008DF83700FFE79DF8370076
:1010B0000EB080BD81B0009001B0704781B000904B
:1010C00001B0704781B0009001B0704781B00090CE
:1010D00001B0704781B0009001B0704710B590B07A
:1010E000844614981398DDF848E0CDF828C0ADF890
:1010F0002610ADF82420ADF82230ADF820000020F5
:101100000790FFF7C5FB06900A9890F83D0020284D
:1011100040F03F82FFE70A9806996A461160022173
:10112000C0F210010122192302F0E4FD20B1FFE713
:1011300002208DF82F0030E2FFE70A9890F83C007B
:10114000012804D1FFE702208DF82F0025E20A993B
:10115000012081F83C00FFE7FFE70A98006800687B
:10116000C00738B9FFE70A980168086840F0010035
:101170000860FFE70A980168086820F400600860CA
:101180000A99222081F83D000A99402081F83E000A
:101190000A990020086412980A994862BDF8200054
:1011A0000A9948850A98408D0A9908850A9900206D
:1011B000CFF6FF70C8620A98BDF82610BDF824204B
:1011C000BDF82230DDF850C0069CEE46CEF8044053
:1011D000CEF800C002F012FA20B1FFE701208DF82E
:1011E0002F00DAE10A98008DA0B9FFE7FFE70020A1
:1011F00005900A980068406905900A98006880691F
:1012000005900598FFE70A980168086840F40070A7
:1012100008605DE00A98008D01281FD1FFE70A9859
:101220000168086820F480600860EFF3108072B6EF
:101230000F90FFE7002004900A980068406904902E
:101240000A980068806904900498FFE70A9801688A
:10125000086840F40070086062B638E00A98008DB3
:1012600002281FD1FFE70A980168086840F400606F
:101270000860EFF3108072B60E90FFE70020039035
:101280000A980068406903900A9800688069039092
:101290000398FFE70A980168086820F480600860F6
:1012A00062B613E00A980168086840F4806008603C
:1012B000FFE7002002900A980068406902900A98AF
:1012C0000068806902900298FFE7FFE7FFE7FFE709
:1012D000FFE70A98008D002800F04981FFE70A988F
:1012E000008D032800F20781FFE70A98008D01288E
:1012F0001ED1FFE70A981499069A02F0E3FD20B187
:10130000FFE701208DF82F0047E10A980068006987
:101310000A99496A08700A99486A013048620A992C
:10132000088D013808850A99488D01384885E1E023
:101330000A98008D022841D1FFE70A98149B06996C
:101340006A4611600421C0F20101002202F0D2FCC1
:1013500020B1FFE701208DF82F001EE1EFF3108090
:1013600072B60D900A980168086840F40070086031
:101370000A98006800690A99496A08700A99486AD7
:10138000013048620A99088D013808850A99488D0C
:101390000138488562B60A98006800690A99496A66
:1013A00008700A99486A013048620A99088D013824
:1013B00008850A99488D013848859AE00A98149B57
:1013C00006996A4611600421C0F20101002202F070
:1013D00091FC20B1FFE701208DF82F00DDE00A9895
:1013E0000168086820F480600860EFF3108072B62E
:1013F0000C900A98006800690A99496A08700A996D
:10140000486A013048620A99088D013808850A99AE
:10141000488D0138488540F28000C2F20000006823
:1014200048F21F51C5F2EB11A0FB0110C00844F6B1
:10143000D351C1F26201A0FB01108009232148436E
:101440000790FFE70798013807900798D0B9FFE7A2
:101450000A99002008630A9A202182F83D100A990F
:1014600081F83E000A99086C40F02000086462B6DA
:10147000FFE70A99002081F83C00FFE701208DF882
:101480002F008AE0FFE70A980068406900F0040135
:101490000020B0EB910FD5D0FFE70A9801680868EB
:1014A00040F4007008600A98006800690A99496A67
:1014B00008700A99486A013048620A99088D013813
:1014C00008850A99488D0138488562B60A980068EF
:1014D00000690A99496A08700A99486A01304862A5
:1014E0000A99088D013808850A99488D0138488580
:1014F000FFE7FFE73AE00A981499069A02F0E2FC47
:1015000020B1FFE701208DF82F0046E00A9800681F
:1015100000690A99496A08700A99486A0130486264
:101520000A99088D013808850A99488D013848853F
:101530000A980068406900F004010120B0EB910FA7
:1015400013D1FFE70A98006800690A99496A087090
:101550000A99486A013048620A99088D013808855D
:101560000A99488D01384885FFE7FFE7B1E60A99F7
:10157000202081F83D000A99002081F83E00FFE715
:101580000A99002081F83C00FFE700208DF82F0029
:1015900003E002208DF82F00FFE79DF82F0010B028
:1015A00010BD000080B58CB00B9000200A9009900F
:1015B000089007900B98006845F20041C4F20001C2
:1015C000884240D1FFE7FFE741F21800C4F2020071
:1015D000016841F008010160006800F00800069011
:1015E0000698FFE7C02007901220089003200A9079
:1015F00040F60040C4F2010007A9FEF775FFFFE7BF
:1016000041F21C00C4F20200016841F400110160C3
:10161000006800F4001005900598FFE71F20019076
:10162000052102910022039200F0F6F8019800F0E3
:10163000E9F80299039A2020049000F0EDF804984C
:1016400000F0E0F8FFE70CB080BD000081B0009032
:1016500001B0704781B0009001B0704740F2E800DF
:10166000C2F20000027841F2D871C2F200010868AB
:10167000104408607047000080B542F20001C4F2D7
:101680000201086840F010000860032000F0DEF856
:101690000F2000F005F800F07BF8002080BD00006E
:1016A00080B58CB00B900020049003908DF807005B
:1016B000FFE741F21C00C4F20200016841F004019E
:1016C0000160006800F0040000900098FFE706A8A1
:1016D00002A900F0EFF909980490049820B9FFE7F7
:1016E00000F018FA059004E000F014FA40000590AC
:1016F000FFE705984DF68361C4F21B31A0FB0101A1
:101700004FF0FF3000EB9140039040F21460C2F2C2
:10171000000040F60001C4F20001016040F2E73130
:10172000C16003994160002101618160816100F025
:10173000BBFD8DF807009DF8070028BBFFE740F2CE
:101740001460C2F2000000F001FE8DF807009DF861
:101750000700C0B9FFE71E2000F054F80B980F28CF
:101760000CD8FFE70B991E20002200F055F80B98CB
:1017700040F2EC01C2F20001086003E001208DF8A4
:101780000700FFE7FFE7FFE79DF807000CB080BD0B
:1017900080B584B0FFE741F21800C4F2020001688E
:1017A00041F001010160006800F00100039003981E
:1017B000FFE7FFE741F21C00C4F20200016841F0BC
:1017C00080510160006800F0805002900298FFE7AD
:1017D0006FF001000F21002200F01EF8FFE7042146
:1017E000C4F2010108680190019820F0E0600190C6
:1017F000019840F00070019001980860FFE704B084
:1018000080BD000080B582B08DF807009DF907000B
:1018100002F052FF02B080BD80B586B08DF817008F
:10182000049103920020029002F05EFF02909DF965
:101830001700019002980499039A02F029FD0146CD
:10184000019802F059FF06B080BD000080B582B05B
:101850000190019802F072FF02B080BD80B584B0A3
:1018600002900191029820B9FFE701208DF80F0046
:101870001BE1019842F20001C4F20201096801F083
:101880000701884216D9FFE742F20000C4F20200C5
:10189000016821F00701019A11430160006800F01E
:1018A00007000199884204D0FFE701208DF80F005E
:1018B000FBE0FFE702980078800700282AD5FFE7C1
:1018C000029800784007002809D5FFE741F204019B
:1018D000C4F20201086840F4E0600860FFE7029883
:1018E00000780007002809D5FFE741F20401C4F29F
:1018F0000201086840F460500860FFE741F204010B
:10190000C4F20201086820F0F000029A92681043C5
:101910000860FFE702980078C007002860D0FFE762
:101920000298406801280ED1FFE741F20000C4F29E
:10193000020000688003002804D4FFE701208DF82E
:101940000F00B2E021E00298406802280ED1FFE7C4
:1019500041F20000C4F2020000688001002804D4B3
:10196000FFE701208DF80F009FE00DE041F200003D
:10197000C4F2020000688007002804D4FFE70120B9
:101980008DF80F0091E0FFE7FFE741F20401C4F298
:101990000201086820F00300029A526810430860B0
:1019A000FEF776FF0090FFE741F20400C4F2020068
:1019B000006800F00C0002994968B0EB810F0ED06E
:1019C000FFE7FEF765FF0099401A41F2893188422E
:1019D00004D3FFE703208DF80F0066E0E4E7FFE79C
:1019E000019842F20001C4F20201096801F0070106
:1019F000884216D2FFE742F20000C4F202000168FA
:101A000021F00701019A11430160006800F007000E
:101A10000199884204D0FFE701208DF80F0044E0CF
:101A2000FFE702980078400700280CD5FFE741F255
:101A30000401C4F20201086820F4E060029AD2684E
:101A400010430860FFE702980078000700280DD5D2
:101A5000FFE741F20401C4F20201086820F460507B
:101A6000029A126940EAC2000860FFE700F064F8D9
:101A700041F20401C4F202010968C9B20A0948F23C
:101A80006461C0F60001895CC84040F28001C2F286
:101A90000001086040F2EC00C2F200000068FFF7AD
:101AA000FFFD00208DF80F00FFE79DF80F0004B048
:101AB00080BD000082B00190009101990F20086064
:101AC00041F20400C4F20200016801F00301019A2E
:101AD0005160016801F0F001019A9160016801F420
:101AE000E061019AD160006800F46050C00801997B
:101AF000086142F20000C4F20200006800F0070032
:101B00000099086002B0704740F28000C2F2000005
:101B10000068704780B5FFF7F7FF41F20401C4F297
:101B200002010968C1F3022248F27461C0F60001A3
:101B3000895CC84080BD00008BB040F60E70C1F2D9
:101B400010000A9040F60A30C0F60C50099040F29E
:101B50000670C0F60810089040F20230C0F204503F
:101B6000079040F20120ADF81A0000200590049083
:101B700003900290019041F20400C4F20200006858
:101B80000590059800F00C0001460091E0B3FFE7D6
:101B90000098042804D0FFE70098082806D034E015
:101BA00041F20020C0F27A00019034E00598C0F3C1
:101BB000834107A8405C02909DF81600C007C0B1A1
:101BC000FFE741F20400C4F20200006800F40031B3
:101BD0000DF11A0040EA514000780490029841F259
:101BE0000021C0F27A0148430499B0FBF1F0039060
:101BF00007E0029840F60011C0F23D01484303900F
:101C0000FFE70398019006E0FFE741F20020C0F2F1
:101C10007A000190FFE701980BB0704780B586B05D
:101C20000490049820B9FFE701208DF817002EE3F7
:101C300004980078C007002800F0AE80FFE741F26A
:101C40000400C4F20200006800F00C00042813D065
:101C5000FFE741F20400C4F20200006800F00C004B
:101C600008281BD1FFE741F20400C4F2020000681B
:101C7000C003002812D5FFE741F20000C4F20200C1
:101C800000688003002808D5FFE70498406820B961
:101C9000FFE701208DF81700F9E27CE0FFE70498E8
:101CA0004068B0F5803F09D1FFE741F20001C4F27E
:101CB0000201086840F48030086032E0049840680F
:101CC00068B9FFE741F20001C4F20201086820F49C
:101CD00080300860086820F48020086020E00498C4
:101CE0004068B0F5A02F0DD1FFE741F20001C4F22A
:101CF0000201086840F480200860086840F48030E1
:101D000008600CE041F20001C4F20201086820F40E
:101D100080300860086820F480200860FFE7FFE753
:101D2000FFE7FFE704984068D0B1FFE7FEF7B0FD9A
:101D30000390FFE741F20000C4F202000068800354
:101D400000280CD4FFE7FEF7A3FD0399401A65288D
:101D500004D3FFE703208DF8170098E2EAE719E0C3
:101D6000FEF796FD0390FFE741F20000C4F2020087
:101D70000068800300280CD5FFE7FEF789FD039972
:101D8000401A652804D3FFE703208DF817007EE290
:101D9000EAE7FFE7FFE7FFE70498007880070028FD
:101DA00040F18D80FFE741F20400C4F202000068B8
:101DB00010F00C0F13D0FFE741F20400C4F2020050
:101DC000006800F00C00082829D1FFE741F2040068
:101DD000C4F202000068C003002820D4FFE741F2EB
:101DE0000000C4F2020000688007002809D5FFE760
:101DF00004980069012804D0FFE701208DF817003E
:101E000045E241F20001C4F20201086820F0F80046
:101E1000049A526940EAC2000860FFE74EE0049865
:101E2000006958B3FFE70021C4F242210120086095
:101E3000FEF72EFD0390FFE741F20000C4F202001E
:101E40000068800700280CD4FFE7FEF721FD039906
:101E5000401A032804D3FFE703208DF8170016E289
:101E6000EAE741F20001C4F20201086820F0F8003C
:101E7000049A526940EAC20008601EE00021C4F2E0
:101E8000422100200860FEF703FD0390FFE741F2C6
:101E90000000C4F202000068800700280CD5FFE7AC
:101EA000FEF7F6FC0399401A032804D3FFE703204A
:101EB0008DF81700EBE1EAE7FFE7FFE7FFE704989B
:101EC00000780007002848D5FFE70498806918B318
:101ED000FFE740F28041C4F2422101200860FEF792
:101EE000D7FC0390FFE741F22400C4F2020000682F
:101EF000800700280CD4FFE7FEF7CAFC0399401ABC
:101F0000032804D3FFE703208DF81700BFE1EAE7B9
:101F1000012002F017FA1FE040F28041C4F2422192
:101F200000200860FEF7B4FC0390FFE741F22400B4
:101F3000C4F202000068800700280CD5FFE7FEF716
:101F4000A7FC0399401A032804D3FFE703208DF868
:101F500017009CE1EAE7FFE7FFE7049800784007F5
:101F6000002840F1D880FFE700208DF8070041F2FB
:101F70001C00C4F202000068C000002813D4FFE770
:101F8000FFE741F21C00C4F20200016841F08051F9
:101F90000160006800F0805000900098FFE7012089
:101FA0008DF80700FFE747F20000C4F20000006868
:101FB000C005002822D4FFE747F20001C4F2000167
:101FC000086840F480700860FEF762FC0390FFE749
:101FD00047F20000C4F200000068C00500280CD4DD
:101FE000FFE7FEF755FC0399401A652804D3FFE785
:101FF00003208DF817004AE1EAE7FFE7FFE70498BE
:10200000C068012809D1FFE741F22001C4F20201B2
:10201000086840F00100086031E00498C06868B9C1
:10202000FFE741F22001C4F20201086820F001003C
:102030000860086820F0040008601FE00498C06889
:1020400005280DD1FFE741F22001C4F20201086822
:1020500040F004000860086840F0010008600CE0EF
:1020600041F22001C4F20201086820F0010008607A
:10207000086820F004000860FFE7FFE7FFE7FFE7DC
:102080000498C068E0B1FFE7FEF702FC0390FFE7A9
:1020900041F22000C4F202000068800700280ED43C
:1020A000FFE7FEF7F5FB0399401A41F289318842B8
:1020B00004D3FFE703208DF81700E8E0E8E71BE012
:1020C000FEF7E6FB0390FFE741F22000C4F20200B6
:1020D0000068800700280ED5FFE7FEF7D9FB0399BB
:1020E000401A41F28931884204D3FFE703208DF87A
:1020F0001700CCE0E8E7FFE79DF80700012809D1C9
:10210000FFE741F21C01C4F20201086820F0805090
:102110000860FFE7FFE70498C069002800F0B3807B
:10212000FFE741F20400C4F20200006800F00C0076
:10213000082800F08280FFE70498C06902285CD17B
:10214000FFE76021C4F2422100200860FEF7A0FBF7
:102150000390FFE741F20000C4F202000068800132
:1021600000280CD5FFE7FEF793FB0399401A0328DC
:1021700004D3FFE703208DF8170088E0EAE704980E
:10218000006AB0F5803F0CD1FFE741F20401C4F2D0
:102190000201086820F40030049A92681043086035
:1021A000FFE741F20401C4F20201086820F4741050
:1021B000049B1A6A5B6A1A43104308606021C4F2E8
:1021C000422101200860FEF763FB0390FFE741F224
:1021D0000000C4F202000068800100280CD4FFE770
:1021E000FEF756FB0399401A032804D3FFE70320A8
:1021F0008DF817004BE0EAE71EE06021C4F24221AF
:1022000000200860FEF744FB0390FFE741F2000066
:10221000C4F202000068800100280CD5FFE7FEF739
:1022200037FB0399401A032804D3FFE703208DF8F6
:1022300017002CE0EAE7FFE724E00498C0690128D2
:1022400004D1FFE701208DF8170020E041F20400DF
:10225000C4F2020000680290029800F480300499F1
:10226000096A884208D1FFE7029800F470100499C7
:10227000496A884204D0FFE701208DF8170006E084
:10228000FFE7FFE7FFE700208DF81700FFE79DF865
:10229000170006B080BD000081B0009001B070470B
:1022A00081B0009001B0704780B582B00090009876
:1022B00020B9FFE701208DF807003FE0009890F873
:1022C0003D0040B9FFE70099002081F83C000098EC
:1022D00000F038F8FFE70099022081F83D000099EE
:1022E00051F8040B02F06EF90099012081F84600C4
:1022F000FFE70099012081F83E00009981F83F0036
:10230000009981F84000009981F84100FFE7FFE75C
:102310000099012081F84200009981F8430000995A
:1023200081F84400009981F84500FFE700990120F9
:1023300081F83D0000208DF80700FFE79DF80700B9
:1023400002B080BD81B0009001B0704783B00190B1
:10235000019890F83D00012804D0FFE701208DF896
:102360000B0047E00199022081F83D0001980168C7
:10237000C86840F00100C8600198006842F600415A
:10238000C4F20101884218D0FFE701980068B0F15B
:10239000804F12D0FFE70198006840F20041C4F27C
:1023A0000001884209D0FFE70198006840F600016B
:1023B000C4F20001884212D1FFE7019800688068EA
:1023C00000F0070000900098062807D0FFE701986A
:1023D0000168086840F001000860FFE706E0019826
:1023E0000168086840F001000860FFE700208DF8F0
:1023F0000B00FFE79DF80B0003B0704781B0009021
:1024000001B0704780B582B0019001980068006902
:1024100000F002010020B0EB510F28D0FFE7019837
:102420000068C06800F002010020B0EB510F1DD021
:10243000FFE7019801686FF002000861019901202F
:102440000877019800688069800720B1FFE701984C
:10245000FFF7D4FF06E0019800F012F9019800F0B0
:1024600013F9FFE7019900200877FFE7FFE70198DC
:102470000068006900F004010020B0EB910F29D042
:10248000FFE701980068C06800F004010020B0EB8D
:10249000910F1ED0FFE7019801686FF004000861FA
:1024A00001990220087701980068806910F4407F44
:1024B00004D0FFE70198FFF7A1FF06E0019800F0C4
:1024C000DFF8019800F0E0F8FFE7019900200877B5
:1024D000FFE7FFE701980068006900F008010020AD
:1024E000B0EBD10F28D0FFE701980068C06800F07A
:1024F00008010020B0EBD10F1DD0FFE70198016863
:102500006FF00800086101990420087701980068BD
:10251000C069800720B1FFE70198FFF76FFF06E071
:10252000019800F0ADF8019800F0AEF8FFE70199CE
:1025300000200877FFE7FFE701980068006900F0D6
:1025400010010020B0EB111F29D0FFE701980068AF
:10255000C06800F010010020B0EB111F1ED0FFE793
:10256000019801686FF01000086101990820087750
:1025700001980068C06910F4407F04D0FFE701981B
:10258000FFF73CFF06E0019800F07AF8019800F0B0
:102590007BF8FFE7019900200877FFE7FFE7019844
:1025A00000680069C00780B1FFE701980068C06853
:1025B000C00748B1FFE7019801686FF001000861AA
:1025C000019800F065F8FFE7FFE7019800680069EF
:1025D000C1B20020B0EBD11F13D0FFE70198006813
:1025E000C068C1B20020B0EBD11F09D0FFE701984D
:1025F00001686FF0800008610198FFF74DFEFFE76A
:10260000FFE701980068006900F040010020B0EB8E
:10261000911F14D0FFE701980068C06800F04001E6
:102620000020B0EB911F09D0FFE7019801686FF01F
:1026300040000861019800F03DF8FFE7FFE70198CE
:102640000068006900F020010020B0EB511F14D099
:10265000FFE701980068C06800F020010020B0EB9F
:10266000511F09D0FFE7019801686FF02000086151
:102670000198FFF715FEFFE7FFE702B080BD0000FD
:1026800081B0009001B0704781B0009001B07047F8
:1026900080B582B001900198006840F60001C4F254
:1026A0000001884203D1FFE7FEF7D8FFFFE702B041
:1026B00080BD000081B0009001B07047FFE7FEE7E9
:1026C00080B540F2BC50C2F20000FEF7F3F880BDC6
:1026D00080B540F2BC50C2F20000FEF7AFF980BDF9
:1026E00081B000900098C06AB0F52A0F04D1FFE7CE
:1026F00000990120C8620BE00098C06AB0F12A4F2F
:1027000004D1FFE700990820C86200E0FFE7FFE777
:1027100001B0704780B584B0039000200290039808
:10272000406A0190019890F83D008DF8030040F256
:102730008000C2F20000006848F21F51C5F2EB11A0
:10274000A0FB0110C00844F6D351C1F26201A0FB06
:1027500001108009232148430290FFE7029830B915
:10276000FFE70199086C40F0200008640CE0029833
:1027700001380290FFE701980068006800F40070DB
:10278000B0F5007FEAD0FFE70198406B28B1FFE782
:102790000198416B00208862FFE70198806B28B1A7
:1027A000FFE70198816B00208862FFE701980168CC
:1027B000086820F48060086001990020488501982D
:1027C000406B28B1FFE70198416B00204863FFE7A9
:1027D0000198806B28B1FFE70198816B0020486366
:1027E000FFE701980168086820F00100086001987F
:1027F00090F83D0060280ED1FFE70199202081F874
:102800003D000199002081F83E000199086401987B
:10281000FEF744F827E09DF8030000F02800282880
:1028200014D1FFE701980168086840F001000860D2
:1028300001980168086840F48060086001990020F0
:1028400008630199282081F83D0008E001992020C3
:1028500081F83D000199002081F83E00FFE70198D2
:10286000FEF7D2FAFFE704B080BD000080B584B067
:102870000390039890F83D008DF80B00039890F8B2
:102880003E008DF80A009DF80A00102805D0FFE7E9
:102890009DF80A0040280CD1FFE79DF80B00222884
:1028A00007D1FFE703980168086820F4006008601A
:1028B000FFE79DF80B0000F02800282808D1FFE76B
:1028C0000399002008630399282081F83D001AE04D
:1028D00003980068406800F40060B0F5006F0ED007
:1028E000FFE79DF80B00602809D0FFE7039920203F
:1028F00081F83D000399002081F83E00FFE703992D
:1029000000200863FFE7039800684068000500287E
:102910005DD5FFE703980168486820F400604860CF
:102920000398406B90F8210001281DD0FFE7039821
:10293000416B42F21570C0F6000048630398406B8B
:10294000FDF73CFD78B1FFE703980168086820F0C7
:10295000010008600399202081F83D000398406B36
:10296000416B8847FFE731E00398816B42F21570B5
:10297000C0F6000048630398806BFDF71FFD20B38D
:10298000FFE703980068406900F040010120B0EBC8
:10299000911F0BD1FFE70398006800690399496A0A
:1029A00008700399486A01304862FFE7039801689C
:1029B000086820F0010008600399202081F83D009C
:1029C0000398806B416B8847FFE7FFE745E003987A
:1029D00090F83D00602826D1FFE70399202081F878
:1029E0003D0003990020086403980068406900F0E6
:1029F00040010120B0EB911F0BD1FFE70398006865
:102A000000690399496A08700399486A013048626D
:102A1000FFE703980168086820F001000860039848
:102A2000FDF73CFF18E003980068406900F04001A2
:102A30000120B0EB911F0BD1FFE7039800680069FC
:102A40000399496A08700399486A01304862FFE7B0
:102A50000398FEF7D9F9FFE7FFE70398006C0190B0
:102A60009DF80400C00790B9FFE7019800F002004C
:102A700002280CD0FFE7019800F00400042806D0DB
:102A8000FFE79DF804000007002807D5FFE703983B
:102A90000168486820F4E0604860FFE7039890F818
:102AA0003D008DF80B000398006C4007002818D5F6
:102AB000FFE79DF80B00282813D1FFE703990020BA
:102AC000CFF6FF70C862039900200863039A2021A3
:102AD00082F83D10039981F83E000398FEF7EAFA68
:102AE000FFE704B080BD000082B00090009800684D
:102AF000406900F480610120B0EB912F1ED1FFE707
:102B0000009801686FF480604861009900200863B4
:102B1000009A202182F83D10009981F83E0000992A
:102B2000086C40F004000864FFE70099002081F879
:102B30003C00FFE701208DF8070003E000208DF83E
:102B40000700FFE79DF8070002B0704780B582B02C
:102B500001900198C06A00900198408D042815D119
:102B6000FFE701980168486820F480604860019898
:102B7000006800690199496A08700199486A013042
:102B800048620199488D01384885ACE00198408D34
:102B9000032824D1FFE701980168486820F4806089
:102BA0004860009804280BD0FFE70098022807D05F
:102BB000FFE701980168086820F480600860FFE77B
:102BC0000198006800690199496A08700199486A8A
:102BD000013048620199488D0138488582E00198AA
:102BE000408D02286ED1FFE70098012804D0FFE74E
:102BF0000098102807D1FFE701980168086820F4C1
:102C0000806008601CE00098042804D0FFE700986A
:102C1000022807D1FFE701980168086840F4806046
:102C200008600CE00098102807D0FFE701980168C1
:102C3000086840F40070086000E0FFE7FFE7FFE786
:102C40000198006800690199496A08700199486A09
:102C5000013048620199488D013848850198006823
:102C600000690199496A08700199486A013048620F
:102C70000199488D0138488501980168486820F419
:102C8000407048600199202081F83D00019890F83B
:102C90003E0040280AD1FFE70199002081F83E005C
:102CA000019908630198FEF711FA0AE001990020E2
:102CB00081F83E000199122008630198FEF7FEF9A1
:102CC000FFE70EE00198006800690199496A087001
:102CD0000199486A013048620199488D0138488558
:102CE000FFE7FFE7FFE702B080BD000080B582B0DC
:102CF0000190019890F83D00222840F09380FFE772
:102D00000198408D0090009804281BD3FFE701989C
:102D1000006800690199496A08700199486A0130A0
:102D200048620199488D013848850198408D0328F3
:102D300007D1FFE701980168486820F48060486087
:102D4000FFE76EE00198C06A022868D0FFE70098AC
:102D5000012804D0FFE70098002860D1FFE7019820
:102D600001F014F9D0BBFFE701980168086820F46E
:102D70008060086001980168486820F4E06048605D
:102D80000198006800690199496A08700199486AC8
:102D9000013048620199488D013848850199202009
:102DA00081F83D00019890F83E0040280AD1FFE7E5
:102DB0000199002081F83E00019908630198FEF70F
:102DC00085F90AE00199002081F83E00019912205E
:102DD00008630198FEF772F9FFE71FE001980168A8
:102DE000486820F4E0604860019800680069019933
:102DF000496A08700199486A013048620199488D12
:102E0000013848850199202081F83D000199002072
:102E100081F83E000198FDF7F7FFFFE700E0FFE7CC
:102E2000FFE7FFE702B080BD80B582B00190019856
:102E3000C06A0090019890F83D00212860D1FFE71A
:102E40000198408D70B1FFE701980168406A0078F1
:102E500008610199486A013048620199488D01383A
:102E600048854CE0009808281ED0FFE700982028ED
:102E70001AD0FFE7009810F5803F15D0FFE70198C2
:102E80000168486820F4E0604860019911200863F7
:102E90000199002081F83E000199202081F83D0031
:102EA0000198FEF70FF929E001980168486820F4BD
:102EB000E060486001980168086840F400700860AC
:102EC0000199002008630199202081F83D000198B4
:102ED00090F83E00402808D1FFE70199002081F8D2
:102EE0003E000198FEF7F6F807E00199002081F80E
:102EF0003E000198FEF7E6F8FFE7FFE7FFE700E096
:102F0000FFE702B080BD000080B584B00390039855
:102F100090F83D008DF80B00039890F83E008DF876
:102F20000A000398C06A01900398008D002852D1CE
:102F3000FFE79DF80B0021284DD1FFE701980828F5
:102F40001ED0FFE7019820281AD0FFE7019810F55E
:102F5000803F15D0FFE703980168486820F4E060DF
:102F600048600399112008630399002081F83E000E
:102F70000399202081F83D000398FEF7A3F829E08B
:102F800003980168486820F4E0604860039801688D
:102F9000086840F4007008600399002008630399F2
:102FA000202081F83D00039890F83E00402808D189
:102FB000FFE70399002081F83E000398FEF78AF8A6
:102FC00007E00399002081F83E000398FEF77AF8A5
:102FD000FFE7FFE735E09DF80B0021280AD0FFE767
:102FE0009DF80A0040282AD1FFE79DF80B0022280F
:102FF00025D1FFE70398408D38B9FFE703980168B2
:10300000486820F48060486018E0039890F83E001B
:10301000402804D1FFE7039800F05EFA0DE0039822
:103020000168406A007808610399486A0130486283
:103030000399488D01384885FFE7FFE700E0FFE787
:10304000FFE704B080BD000081B000900098406CA4
:10305000C0B20099096808610098406B28B1FFE789
:103060000098406B806A48B9FFE70098806B60B1B8
:10307000FFE70098806B806A38B1FFE7009801682D
:10308000486840F400604860FFE701B07047000006
:103090008FB00E900E9890F83E008DF837000E9885
:1030A000C06A0C900E98006B0B900E9890F83D0043
:1030B000222840F08981FFE70E98006D98B9FFE75C
:1030C0009DF8370040280ED1FFE7FFE700200A9067
:1030D0000E98006840690A900E98006880690A900E
:1030E0000A98FFE76FE10E98006DF0B9FFE70E98C0
:1030F0000069B0F5404F18D1FFE7FFE700200990C5
:103100000E980068406909900E98006880690990DF
:103110000998FFE70E980168086840F4807008601D
:103120000E99086D013008654CE10E98408DA0B9EC
:10313000FFE7FFE7002008900E98006840690890BC
:103140000E980068806908900898FFE70E9801685B
:10315000086840F40070086030E10E98408D012846
:1031600040F09080FFE70C9810F5803F36D1FFE7E4
:103170000E980168086820F4806008600E98006866
:1031800040680005002814D5FFE70E98016808681C
:1031900020F480600860FFE7002007900E98006828
:1031A000406907900E980068806907900798FFE7CC
:1031B00013E0FFE7002006900E9800684069069033
:1031C0000E980068806906900698FFE70E980168DF
:1031D000086840F400700860FFE752E00C98082887
:1031E00034D0FFE70C98202830D0FFE70B98122846
:1031F00004D1FFE70C98012828D1FFE70C98042898
:103200000FD0FFE70C9802280BD0FFE70C9810288E
:1032100007D0FFE70E980168086820F48060086016
:1032200006E00E980168086840F480600860FFE7D7
:10323000FFE7002005900E980068406905900E9801
:103240000068806905900598FFE719E00E9801680D
:10325000086820F480600860FFE7002004900E9862
:103260000068406904900E98006880690490049892
:10327000FFE70E980168086840F400700860FFE7F7
:10328000FFE79AE00E98408D02285ED1FFE70C9888
:10329000042822D0FFE70C9802281ED0FFE70C98E4
:1032A00010281AD0FFE70E980168086840F4006003
:1032B0000860FFE7002003900E98006840690390C3
:1032C0000E980068806903900398FFE70E980168E4
:1032D000086820F48060086013E00E9801680868B0
:1032E00040F480600860FFE7002002900E980068BC
:1032F000406902900E980068806902900298FFE78A
:10330000FFE70E9800684068000500281CD5FFE71D
:103310000C9810F5803F10D0FFE70C9801280CD0D6
:10332000FFE70C98082808D0FFE70C98102804D075
:10333000FFE70C98202807D1FFE70E98016848683E
:1033400040F480504860FFE736E00E980168086856
:1033500040F4806008600E9800684068000500280E
:103360001CD5FFE70C9810F5803F10D0FFE70C98B4
:1033700001280CD0FFE70C98082808D0FFE70C982C
:10338000102804D0FFE70C98202807D1FFE70E98FB
:103390000168486840F480504860FFE7FFE700207C
:1033A00001900E980068406901900E98006880694D
:1033B00001900198FFE7FFE7FFE7FFE70E99002084
:1033C0000865FFE7FFE70DE0FFE7002000900E989B
:1033D0000068406900900E9800688069009000982D
:1033E000FFE7FFE70FB0704781B00090009890F8BA
:1033F0003E00402816D1FFE70098006D40B9FFE776
:103400000098406C00F0FE0000990968086108E02F
:103410000098406C40F00100C0B200990968086152
:10342000FFE757E000980069B0F5804F31D1FFE722
:10343000009890F83D00212808D1FFE70098406CE3
:1034400000F0FE0000990968086108E00098406CEF
:1034500040F00100C0B2009909680861FFE70098D8
:10346000406B28B1FFE70098406B806A48B9FFE7DE
:103470000098806B60B1FFE70098806B806A38B17C
:10348000FFE700980168486840F400604860FFE783
:103490001FE00098006D50B9FFE70098406C00F401
:1034A0004070C009F03000990968086110E0009888
:1034B000006D01280AD1FFE70098406C00F44070CD
:1034C000C009F13000990968086100E0FFE7FFE7F3
:1034D000FFE7FFE701B0704780B582B00190019827
:1034E00090F83D008DF803000198006DE8B9FFE702
:1034F0000198C06C01280BD1FFE70198806CC0B225
:103500000199096808610199086D023008650BE0AE
:103510000198806C80B2000A0199096808610199DC
:10352000086D01300865FFE765E00198006D01282E
:103530000BD1FFE70198806CC0B20199096808615E
:103540000199086D0130086554E00198006D02286A
:103550004ED1FFE79DF8030022280BD1FFE7019829
:103560000168086840F4807008600199086D0130B6
:1035700008653CE00198408D98B1FFE79DF8030095
:1035800021280ED1FFE701980168406A00780861A0
:103590000199486A013048620199488D013848858F
:1035A00024E00198408DF8B9FFE79DF80300212839
:1035B0001AD1FFE701980168486820F4E06048608C
:1035C00001980168086840F40070086001990020C3
:1035D0000863019A202182F83D10019981F83E008C
:1035E0000198FDF777FD00E0FFE7FFE7FFE700E068
:1035F000FFE7FFE7FFE702B080BD000080B586B0BF
:10360000DDF824C0DDF820C00490ADF80E10ADF850
:103610000C20ADF80A3004980168086840F4806016
:10362000086004980168086840F480700860049895
:10363000089B09996A4611604FF00111002200F0C1
:1036400059FB80B1FFE7049800680068C0050028B6
:1036500005D5FFE704994FF400700864FFE70320E5
:103660008DF81700B7E0BDF80E0000F0FE000499D9
:10367000096808610498089A099B0221C0F20101B7
:1036800000F098FB20B1FFE701208DF81700A2E0C1
:10369000FFE70020019004980068406901900498B9
:1036A0000068806901900198FFE704980899099AD9
:1036B00000F0A8FC80B1FFE70498006C042807D153
:1036C000FFE704980168086840F400700860FFE7AD
:1036D00001208DF817007EE0BDF80A00012806D110
:1036E000FFE79DF80C0004990968086121E09DF846
:1036F0000D0004990968086104980899099A00F076
:1037000081FC80B1FFE70498006C042807D1FFE733
:1037100004980168086840F400700860FFE7012021
:103720008DF8170057E09DF80C00049909680861AE
:10373000FFE704980899099A00F064FC80B1FFE75C
:103740000498006C042807D1FFE704980168086812
:1037500040F400700860FFE701208DF817003AE0A0
:1037600004980168086840F4807008600498089B19
:1037700009996A4611604FF00111002200F0BAFA6F
:1037800080B1FFE7049800680068C005002805D5EF
:10379000FFE704994FF400700864FFE703208DF8F9
:1037A000170018E09DF80E0040F001000499096828
:1037B00008610498089A099B0221C0F2010100F0F7
:1037C000F9FA20B1FFE701208DF8170003E000208F
:1037D0008DF81700FFE79DF8170006B080BD0000C8
:1037E00081B000900098408D78B1FFE700980068A4
:1037F00000690099496A08700099486A0130486276
:103800000099488D01384885FFE701B070470000F6
:1038100080B582B00190019890F83D008DF80300CA
:103820000198408D48B3FFE701980068006901994D
:10383000496A08700199486A013048620199488DC7
:10384000013848850198408DB0B9FFE79DF8030025
:103850002A2811D1FFE701980168486820F48060A8
:1038600048600199222008630199282081F83D00D1
:103870000198FDF7EBFEFFE7FFE702B080BD000017
:1038800081B000900098408D70B1FFE7009801680A
:10389000406A007808610099486A013048620099DE
:1038A000488D01384885FFE701B0704780B582B088
:1038B0000190019890F83D008DF803000198408D2B
:1038C00040B3FFE701980168406A007808610199F8
:1038D000486A013048620199488D0138488501984D
:1038E000408DB0B9FFE79DF80300292811D1FFE70B
:1038F00001980168486820F480604860019921209F
:1039000008630199282081F83D000198FDF7A2FE87
:10391000FFE7FFE702B080BD80B584B0039002915D
:1039200000208DF80700039890F83D0000F0280073
:10393000282832D1FFE703980168486820F48060A6
:1039400048609DF8080000F004010020B0EB910FE2
:1039500004D1FFE701208DF80700FFE79DF808106C
:103960000020B0EBD11F05D1FFE70398C068ADF888
:10397000040004E003988069ADF80400FFE7FFE766
:103980000399002081F83C00FFE703989DF8071099
:10399000BDF80420FCF786FF13E0FFE7002000904D
:1039A000039800684069009003980068806900905F
:1039B0000098FFE7FFE70399002081F83C00FFE74C
:1039C000FFE704B080BD000080B584B00390039889
:1039D00090F83D008DF80B000398C06A01900198A3
:1039E000082804D0FFE70198202829D1FFE79DF897
:1039F0000B00282824D1FFE703990020CFF6FF70A1
:103A0000C86203980168486820F4E0604860039841
:103A100001686FF48060486103980168086820F4C9
:103A200080600860039900200863039A202182F8CF
:103A30003D10039981F83E000398FDF73BFB30E011
:103A40009DF80B00212825D1FFE703990020CFF630
:103A5000FF70C8620399212008630399202081F830
:103A60003D000399002081F83E00039801684868F2
:103A700020F4E0604860039801686FF4806048615A
:103A800003980168086820F4806008600398FDF7D7
:103A9000E1FD05E0039801686FF480604861FFE78D
:103AA000FFE704B080BD000080B584B003900398A8
:103AB00090F83D008DF80B0003980168486820F4E9
:103AC000E0604860FFE700200190039800684069CB
:103AD000019003980168086840F0010008600198AF
:103AE000FFE703980168086820F480600860039885
:103AF00000684068000500286DD5FFE79DF80B00C1
:103B0000222805D0FFE79DF80B002A2831D1FFE7D6
:103B10000398806B00684068039948850398408D3E
:103B200030B1FFE70399086C40F004000864FFE738
:103B300003980168486820F4006048600398806B2F
:103B4000FCF7CAFC012813D0FFE70398816B42F20F
:103B50001570C0F6000048630398806BFCF72EFCDC
:103B600028B1FFE70398806B416B8847FFE7FFE7C9
:103B700030E00398406B00684068039948850398DB
:103B8000408D30B1FFE70399086C40F004000864F1
:103B9000FFE703980168486820F4006048600398D4
:103BA000406BFCF799FC012813D0FFE70398416BA9
:103BB00042F21570C0F6000048630398406BFCF7B2
:103BC000FDFB28B1FFE70398406B416B8847FFE797
:103BD000FFE7FFE7FFE70398408DE8B3FFE70398AF
:103BE0000068406900F004010120B0EB910F0FD193
:103BF000FFE70398006800690399496A0870039910
:103C0000486A013048620399488D01384885FFE7CA
:103C100003980068406900F040010120B0EB911F5B
:103C20000FD1FFE70398006800690399496A08709B
:103C30000399486A013048620399488D01384885E4
:103C4000FFE70398408D30B1FFE70399086C40F01F
:103C500004000864FFE7FFE70398006C20B1FFE76A
:103C60000398FEF703FE42E09DF80B002A280BD1D3
:103C7000FFE70399002008630399282081F83D009D
:103C80000398FDF7E3FCFFE7039890F83D00282830
:103C900013D1FFE703990020CFF6FF70C8620399A4
:103CA00000200863039A202182F83D10039981F8CF
:103CB0003E000398FDF7FEF918E00398006B2228F8
:103CC00005D0FFE79DF80B0022280ED1FFE70399EE
:103CD00000200863039A202182F83D10039981F89F
:103CE0003E000398FDF7B2FCFFE7FFE7FFE704B0F3
:103CF00080BD000080B586B0DDF820C0049003913F
:103D00008DF80B200193FFE79DF80E0001280CD1E0
:103D1000FFE7049800684069BDF80C100840401A9D
:103D2000B0FA80F0400900900BE0049800688069C8
:103D3000BDF80C100840401AB0FA80F0400900901D
:103D4000FFE700989DF80B1088422AD1FFE7019801
:103D5000013028B3FFE7FCF79BFD0899401A019951
:103D6000884203D8FFE70198C8B9FFE7049900200B
:103D70000863049A202182F83D10049981F83E00DE
:103D80000499086C40F020000864FFE704990020C3
:103D900081F83C00FFE701208DF8170005E0FFE700
:103DA000B2E700208DF81700FFE79DF8170006B076
:103DB00080BD000080B586B004900391029201930B
:103DC000FFE79DF80E0001280CD1FFE7049800687A
:103DD0004069BDF80C100840401AB0FA80F0400964
:103DE00000900BE0049800688069BDF80C10084052
:103DF000401AB0FA80F040090090FFE700980028D0
:103E000058D1FFE704980068406900F48061012000
:103E1000B0EB912F24D1FFE704980168086840F4C3
:103E200000700860049801686FF48060486104992C
:103E300000200863049A202182F83D10049981F83B
:103E40003E000499086C40F004000864FFE7049900
:103E5000002081F83C00FFE701208DF817002DE0DD
:103E60000298013028B3FFE7FCF712FD0199401AD0
:103E70000299884203D8FFE70298C8B9FFE704997E
:103E800000200863049A202182F83D10049981F8EB
:103E90003E000499086C40F020000864FFE7049994
:103EA000002081F83C00FFE701208DF8170005E0B5
:103EB000FFE786E700208DF81700FFE79DF8170061
:103EC00006B080BD80B584B0029001910092FFE7FA
:103ED00002980068406900F040010020B0EB911F9B
:103EE0004BD1FFE702980068406900F01001012003
:103EF000B0EB111F1CD1FFE7029801686FF01000B2
:103F00004861029900200863029A202182F83D103E
:103F1000029981F83E000299086C0864FFE7029953
:103F2000002081F83C00FFE701208DF80F0028E019
:103F3000FCF7AEFC0099401A0199884203D8FFE7CC
:103F40000198C8B9FFE7029900200863029A20216E
:103F500082F83D10029981F83E000299086C40F009
:103F600020000864FFE70299002081F83C00FFE789
:103F700001208DF80F0004E0AAE700208DF80F0063
:103F8000FFE79DF80F0004B080BD000083B00190F2
:103F90000020009040F28000C2F20000006848F269
:103FA0001F51C5F2EB11A0FB0110C00844F6D3511C
:103FB000C1F26201A0FB0110800900EB80000090BB
:103FC000FFE7009801380090009848B9FFE7019991
:103FD000086C40F02000086401208DF80B000DE013
:103FE000FFE701980068006800F40070B0F5007FFA
:103FF000E7D0FFE700208DF80B00FFE79DF80B00EE
:1040000003B0704780B584B0029001910092FFE741
:10401000029800684069C1B20020B0EBD11F33D1D3
:10402000FFE70298FEF760FD20B1FFE701208DF861
:104030000F002DE00198013028B3FFE7FCF728FCC2
:104040000099401A0199884203D8FFE70198C8B93E
:10405000FFE7029900200863029A202182F83D10B0
:10406000029981F83E000299086C40F02000086433
:10407000FFE70299002081F83C00FFE701208DF85E
:104080000F0005E0FFE7C3E700208DF80F00FFE712
:104090009DF80F0004B080BD80B540F2DC00C2F294
:1040A00000008068804738B9FFE740F2DC01C2F2C7
:1040B00000010020887006E040F2DC01C2F200013D
:1040C00001208870FFE780BD80B582B044F2F540E2
:1040D000C0F6000048F2C462C0F60002002101915F
:1040E00001F05EFC019940F2B452C2F2000210608D
:1040F00044F62100C0F6000048F27C62C0F60002DF
:1041000001F04EFC019940F25812C2F20002106018
:1041100046F6C130C0F6000048F2A062C0F60002C8
:1041200001F03EFC40F2BC21C2F20001086002B086
:1041300080BD000080B590B000200F900E900D90D3
:104140000C90FFE741F21800C4F20200016841F050
:1041500020010160006800F020000B900B98FFE741
:10416000FFE741F21800C4F20200016841F00401C7
:104170000160006800F004000A900A98FFE7FFE77A
:1041800041F21800C4F20200016841F00801016028
:10419000006800F0080009900998FFE740F6000069
:1041A000C4F201000190C021009101220392FCF7AA
:1041B00057FB039A40F60040C4F201000690032129
:1041C0000291FCF74DFB06984FF4805108910022B4
:1041D0000492FCF745FB0198039A04990C920D9107
:1041E0000E910CA90791FCF77FF9009B0198039AA7
:1041F00007990C930D920E92022205920F92FCF7F2
:1042000073F9DDF808C0039B059A06980799CDF865
:1042100030C00D930E930F92FCF766F9DDF80CC0D9
:10422000049B059A06980799DDF820E0CDF830E068
:10423000CDF834C00E930F92FCF756F910B080BD44
:1042400080B582B040F2BC50C2F20000019045F24D
:104250000041C4F20001016048F2A061C0F2010116
:10426000416000218160C1604FF480420261416180
:104270008161C1610162FCF7CBFD18B1FFE7FCF77A
:1042800095F8FFE702B080BDFFE7FEE7FFE7FEE736
:1042900088B0079006910592079800F007000490F7
:1042A0000498C0F10700052803D3FFE7042001901C
:1042B00004E00498C0F107000190FFE70198039023
:1042C00004980430062803D8FFE70020009003E09C
:1042D000049803380090FFE700980290069803992D
:1042E000012202FA01F101390840029B9840059928
:1042F0009A40013A1140084308B07047000000009E
:10430000EFF30980BFF36F8F0D4B1A6820E9F00FB0
:1043100010602DE908404FF0500080F3118802F042
:10432000EDFF4FF0000080F31188BDE808401968E8
:104330000868B0E8F00F80F30988BFF36F8F70470B
:104340005807002082B00190019840F28001C2F22B
:1043500000010968C90844F6D352C1F26202A1FB08
:104360000221890948430090FFE700BFFFE700985A
:10437000411E00910028F8D1FFE702B0704700000D
:10438000074B19680868B0E8F00F80F30988BFF39D
:104390006F8F4FF0000080F311884EF00D0E7047C4
:1043A0005807002080B582B040F28400C2F20000BD
:1043B000416D012001908847019800F00BFA02B08E
:1043C00080BD000080B582B040F2DC00C2F2000087
:1043D000807888BBFFE740F26060C2F2000001888D
:1043E0000131018040F6D032C2F20002002111807A
:1043F00000880146019114280CD0FFE70198282875
:104400000CD0FFE701983C280CD0FFE7019850281A
:104410000CD00FE0042001F0A9F90CE0032001F01A
:10442000A5F908E0022001F0A1F904E0012001F063
:104430009DF900E0FFE708E040F26061C2F2000190
:104440000020088000F0C6F9FFE702B080BD000040
:1044500080B582B040F2DC00C2F20000807888BBF8
:10446000FFE740F26060C2F2000001880131018084
:1044700040F6D032C2F200020021118000880146CD
:10448000019114280CD0FFE7019828280CD0FFE7F1
:1044900001983C280CD0FFE7019850280CD00FE081
:1044A000012001F063F90CE0022001F05FF908E05F
:1044B000032001F05BF904E0042001F057F900E06B
:1044C000FFE708E040F26061C2F2000100200880CE
:1044D00000F06CFAFFE702B080BD000080B540F24A
:1044E0008400C2F20000416D0020884700F05EFAAF
:1044F00080BD000080B582B00190FFE701F048F870
:104500000A2001F0ABF9F9E780B582B04FF0500016
:1045100080F31188BFF36F8FBFF34F8F009003F0CC
:104520007BFD40B1FFE74EF60451CEF200014FF0A3
:1045300080500860FFE700200190019880F3118807
:1045400002B080BD80B590B006A800902821FBF78E
:1045500088FE00980023059304930393029301932C
:10456000012206924FF48031079108930A920222A9
:104570000D920E914FF4E0110F91FDF74FFB18B122
:10458000FFE7FBF713FFFFE70F20019002210291E5
:10459000002003904FF480620492059001A8FDF77B
:1045A0005DF918B1FFE7FBF701FFFFE710B080BD31
:1045B0007047000080B540F21460C2F20000FDF7C1
:1045C00021FF80BD83B002900191029800680090A5
:1045D000029842F60041C4F20101884215D0FFE77B
:1045E0000298B0F1804F10D0FFE7029840F20041EE
:1045F000C4F20001884208D0FFE7029840F60001AB
:10460000C4F2000188420AD1FFE7009820F0700050
:10461000009001984168009808430090FFE70298D5
:1046200042F60041C4F20101884215D0FFE702982A
:10463000B0F1804F10D0FFE7029840F20041C4F281
:104640000001884208D0FFE7029840F60001C4F25A
:10465000000188420AD1FFE7009820F440700090E2
:104660000198C168009808430090FFE7009820F087
:1046700080000199496908430090009802990860F8
:10468000019880680299C86201980068029988625E
:10469000029842F60041C4F20101884205D1FFE7C9
:1046A0000198006902990863FFE7029901204861B7
:1046B00003B07047FFE7FEE781B08DF803009DF976
:1046C000030000280ED4FFE79DF9031001F01F023C
:1046D000012090404A094EF20011CEF2000141F84B
:1046E0002200FFE701B070474EF60C50CEF20000FA
:1046F0000068C0F30220704782B08DF80700009177
:104700009DF9070000280AD4FFE7009800019DF9F1
:1047100007104EF20042CEF2000288540BE00098DF
:1047200000019DF8071001F00F014EF61452CEF271
:1047300000028854FFE702B07047000083B0029087
:10474000029800F0070000904EF60C51CEF20001E6
:104750000868019001984FF6FF02104001900198FF
:10476000009A40EA02200022C0F2FA52104301905F
:104770000198086003B0704780B584B00390039837
:104780000290029908788978884207D0FFE740F6BE
:10479000D031C2F2000100200880FFE702980078C3
:1047A00001460191032810D80199DFE801F00205C4
:1047B000080BFFF7F7FD09E0FFF74AFE06E0FFF7F9
:1047C0008DFE03E0FFF7FEFD00E0FFE7012004B0EF
:1047D00080BD000080B584B08DF80F009DF80F20DB
:1047E00040F60000C4F2010001904021FCF738F8C7
:1047F00001989DF80F208021FCF732F89DF80F20DA
:1048000040F60040C4F2010002900121FCF728F8B4
:1048100002989DF80F200221FCF722F804B080BD19
:1048200080B5AAB02990FFE740F28400C2F20000F0
:104830000690006880470146069840F21C52C2F27A
:1048400000020792118040688047079A0146069847
:10485000518080688047079A014606989180C06819
:104860008047079A01460698D18000698047079AD9
:1048700001460698118140698047079A01460698CB
:10488000518180698047079A01460698D181C069A5
:104890008047079A014606981182006A8047079A66
:1048A000014606985182406A8047079A0146069859
:1048B0009182C06A8047079A014606981183806AF0
:1048C0008047079A01460698D182016B26A888473F
:1048D0000698079A2699279BDDF89FC0C2F821C049
:1048E000C2F81E30C2F81A10406B8047079A014682
:1048F0000698D184806B8047079A014606981185F7
:10490000C16B1FA801908847019907982A30192286
:10491000FBF75AFC0698816C1BA888470698079AF3
:104920001B991C9BDDF874C0DDF878E0C2F873E0D9
:10493000C2F86FC0C2F86B30C2F86710C16C16A81D
:104940000290884702990798773012220592FBF768
:104950003BFC0698016C11A8039088470399059ABF
:1049600007984330FBF730FC0698416C0CA8049084
:1049700088470499059A07985530FBF725FC069857
:10498000016D08A888470799BDF82C00A1F895008B
:104990000898099A0A9BC1F89130C1F88D20C1F896
:1049A0008900322000F05AFF3EE7000080B540F257
:1049B0005C61C2F2000108680130086040F21C50DE
:1049C000C2F20000008842F6C271884203DBFFE7B2
:1049D00002F0DAFD60E040F21C50C2F200000088F4
:1049E00042F64B61884203DBFFE702F0A5FD52E08F
:1049F00040F21C50C2F20000008842F6D4418842C6
:104A000003DBFFE702F082FD44E040F21C50C2F2FB
:104A10000000008842F65D31884203DBFFE702F0C8
:104A20004DFD36E040F21C50C2F20000008842F614
:104A3000E611884203DBFFE702F02AFD28E040F29E
:104A40001C50C2F20000008842F66F01884203DB6E
:104A5000FFE702F0F5FC1AE040F21C50C2F2000041
:104A6000008842F2F861884203DBFFE702F0D2FCE3
:104A70000CE040F21C50C2F200000088B0F5165F56
:104A800003DDFFE702F09EFCFFE7FFE7FFE7FFE73C
:104A9000FFE7FFE7FFE7FFE780BD000080B582B0DA
:104AA0000190019808B9FFE70FE00198807840F283
:104AB000B951C2F2000108700198406820B1FFE7C7
:104AC00001984168884700E0FFE702B080BD000020
:104AD00040F6D031C2F2000108880130088040F26F
:104AE000DC00C2F20000007960B1FFE740F2DC00B8
:104AF000C2F200000079013040F2B851C2F2000168
:104B0000087016E040F6D030C2F200000088C828D5
:104B100007DCFFE740F2B851C2F200010020087044
:104B200006E040F2B851C2F2000101200870FFE730
:104B3000FFE7704780B584B040F21060C2F2000019
:104B400000686A46142191600221516003A9116036
:104B500016210E220123FCF7C1FA48B9FFE79DF8A0
:104B60000C009DF80D1040EA0120ADF80E0003E0A6
:104B70000020ADF80E00FFE7BDF80E0004B080BDC8
:104B800080B584B040F21060C2F2000000686A464E
:104B9000142191600221516003A911601621122293
:104BA0000123FCF79BFA48B9FFE79DF80C009DF83C
:104BB0000D1040EA0120ADF80E0003E00020ADF832
:104BC0000E00FFE7BDF80E0004B080BD80B584B0D4
:104BD00040F21060C2F2000000686A461421916041
:104BE0000221516003A91160162113220123FCF751
:104BF00075FA48B9FFE79DF80C009DF80D1040EAE2
:104C00000120ADF80E0003E00020ADF80E00FFE734
:104C1000BDF80E0004B080BD80B586B0049040F2AF
:104C20001060C2F2000000686A46142191600221FF
:104C300051600DF116011160162201231146FCF797
:104C40004DFAB8BBFFE704999DF81700C00908703A
:104C50009DF81700C0F3801048709DF81700C0F34E
:104C6000001088709DF81700C0F3C000C8709DF850
:104C70001700C0F3400008719DF8170000F0010014
:104C800048719DF81600C00988719DF81600C0F3A0
:104C90008010C8719DF81600C0F3401008729DF88E
:104CA0001600C0F3001048729DF8160000F00F00C7
:104CB0008872FFE706B080BD80B584B040F2106016
:104CC000C2F2000000686B4614229A60022159600B
:104CD00003A9196016210123FCF700FA48B9FFE780
:104CE0009DF80C009DF80D1040EA0120ADF80E0073
:104CF00003E00020ADF80E00FFE7BDF80E0004B0A1
:104D000080BD000080B584B040F21060C2F20000A7
:104D100000686A46142191600221516003A9116064
:104D2000162115220123FCF7D9F948B9FFE79DF8B0
:104D30000C009DF80D1040EA0120ADF80E0003E0D4
:104D40000020ADF80E00FFE7BDF80E0004B080BDF6
:104D500080B584B040F21060C2F2000000686A467C
:104D6000142191600221516003A9116016210A22C9
:104D70000123FCF7B3F948B9FFE79DF80C009DF853
:104D80000D1040EA0120ADF80E0003E00020ADF860
:104D90000E00FFE7BDF80E0004B080BD80B584B002
:104DA00040F21060C2F2000000686A46142191606F
:104DB0000221516003A91160162117220123FCF77B
:104DC0008DF948B9FFE79DF80C009DF80D1040EAF9
:104DD0000120ADF80E0003E00020ADF80E00FFE763
:104DE000BDF80E0004B080BD80B584B040F2106004
:104DF000C2F2000000686A461421916002215160ED
:104E000003A91160162118220123FCF767F948B99C
:104E1000FFE79DF80C009DF80D1040EA0120ADF869
:104E20000E0003E00020ADF80E00FFE7BDF80E0015
:104E300004B080BD80B584B040F21060C2F20000C2
:104E400000686A46142191600221516003A9116033
:104E5000162110220123FCF741F948B9FFE79DF81C
:104E60000C009DF80D1040EA0120ADF80E0003E0A3
:104E70000020ADF80E00FFE7BDF80E0004B080BDC5
:104E800080B586B0049040F21060C2F20000006865
:104E90006A4614219160052151600DF115011160E0
:104EA000162156220123FCF719F9002846D1FFE705
:104EB00004999DF81700C00908709DF81700C0F309
:104EC000801048709DF81700C0F3401088709DF85E
:104ED0001700C0F38000C8709DF81700C0F34000B1
:104EE00008719DF8170000F0010048719DF8160048
:104EF000C00988719DF81600C0F38010C8719DF834
:104F00001600C0F3401008729DF81600C0F30010A0
:104F100048729DF81600C0F3C00088729DF8160014
:104F2000C0F38000C8729DF81600C0F340000873FB
:104F30009DF8160000F001004873FFE706B080BD41
:104F400080B586B0039040F21060C2F200000068A5
:104F50006A4614219160052151600DF11301116021
:104F6000162154220123FCF7B9F800287CD1FFE771
:104F700003999DF81700C00908709DF81700C0F349
:104F8000001048709DF81700C0F3C00088709DF8AD
:104F90001700C0F38000C8709DF8170000F00100F2
:104FA00008719DF81600C00948719DF81600C0F3FD
:104FB000801088719DF81600C0F34010C8719DF8EC
:104FC0001600C0F3001008729DF81600C0F38000B0
:104FD00048729DF81600C0F3400088729DF81600D4
:104FE00000F00100C8729DF81500C00908739DF813
:104FF0001500C0F3801048739DF81500C0F34010F1
:1050000088739DF81500C0F30010C8739DF8150053
:10501000C0F3C00008749DF81500C0F38000487408
:105020009DF8150000F0030088749DF81400C0F38B
:105030004010C8749DF81400C0F3001008759DF866
:105040001400C0F3C00048759DF81400C0F3800040
:1050500088759DF81400C0F34000C8759DF81400D1
:1050600000F001000876FFE706B080BD80B586B08D
:10507000049040F21060C2F2000000686A461421F9
:105080009160052151600DF1150111601621522228
:105090000123FCF723F8002850D1FFE704999DF87D
:1050A0001700C00908709DF81700C0F38010487001
:1050B0009DF81700C0F3401088709DF81700C0F3EA
:1050C0000010C8709DF81700C0F3C00008719DF86B
:1050D0001700C0F3800048719DF81700C0F340002E
:1050E00088719DF8170000F00100C8719DF8160046
:1050F000C00908729DF81600C0F3801048729DF830
:105100001600C0F3401088729DF81600C0F300101E
:10511000C8729DF81600C0F3C00008739DF8160011
:10512000C0F3800048739DF81600C0F340008873F8
:105130009DF8160000F00100C873FFE706B080BDBF
:1051400080B586B0039040F21060C2F200000068A3
:105150006A4614219160052151600DF1130111601F
:10516000162153220123FBF7B9FF00285AD1FFE78C
:1051700003999DF81600C0F3400008709DF81600D2
:1051800000F0010048709DF81500C00988709DF876
:105190001500C0F38010C8709DF81500C0F34010D2
:1051A00008719DF81500C0F3001048719DF81500B6
:1051B000C0F3C00088719DF81500C0F38000C8716D
:1051C0009DF81500C0F3400008729DF8150000F02E
:1051D000010048729DF81400C00988729DF81400FF
:1051E000C0F38010C8729DF81400C0F3401008731B
:1051F0009DF81400C0F3001048739DF81400C0F32C
:10520000C00088739DF81400C0F38000C8739DF837
:105210001400C0F3400008749DF8140000F0010071
:105220004874FFE706B080BD80B584B040F21060DE
:10523000C2F2000000686A461421916002215160A8
:1052400003A9116016210D220123FBF747FF48B97E
:10525000FFE79DF80C009DF80D1040EA0120ADF825
:105260000E0003E00020ADF80E00FFE7BDF80E00D1
:1052700004B080BD80B584B040F21060C2F200007E
:1052800000686A46142191600221516003A91160EF
:1052900016210F220123FBF721FF48B9FFE79DF8F4
:1052A0000C009DF80D1040EA0120ADF80E0003E05F
:1052B0000020ADF80E00FFE7BDF80E0004B080BD81
:1052C00080B584B040F21060C2F2000000686A4607
:1052D000142191600221516003A91160162111224D
:1052E0000123FBF7FBFE48B9FFE79DF80C009DF892
:1052F0000D1040EA0120ADF80E0003E00020ADF8EB
:105300000E00FFE7BDF80E0004B080BD80B586B08A
:10531000039040F21060C2F2000000686A46142157
:105320009160052151600DF1130111601621502289
:105330000123FBF7D3FE00285BD1FFE703999DF81B
:105340001600C0F3001008709DF81600C0F3C000EE
:1053500048709DF81600C0F3400088709DF8150055
:10536000C0F38010C8709DF81500C0F3401008719C
:105370009DF81500C0F3001048719DF81500C0F3AA
:10538000C00088719DF81500C0F38000C8719DF8B9
:105390001500C0F3400008729DF8150000F00100F0
:1053A00048729DF81400C00988729DF81400C0F37B
:1053B0008010C8729DF81400C0F3401008739DF867
:1053C0001400C0F3001048739DF81400C0F3C0002F
:1053D00088739DF81400C0F38000C8739DF8140012
:1053E000C0F3400008749DF8140000F001004874F8
:1053F000FFE706B080BD000080B586B0039040F2A4
:105400001060C2F2000000686A4614219160052114
:1054100051600DF113011160162151220123FBF798
:105420005DFE00285BD1FFE703999DF81600C0F3ED
:10543000001008709DF81600C0F3800048709DF8B9
:10544000160000F0010088709DF81500C0F3801070
:10545000C8709DF81500C0F3401008719DF8150044
:10546000C0F3001048719DF81500C0F3C0008871AA
:105470009DF81500C0F38000C8719DF81500C0F3B9
:10548000400008729DF8150000F0010048729DF878
:105490001400C00988729DF81400C0F38010C8720F
:1054A0009DF81400C0F3401008739DF81400C0F379
:1054B000001048739DF81400C0F3C00088739DF875
:1054C0001400C0F38000C8739DF81400C0F34000BE
:1054D00008749DF8140000F001004874FFE706B05E
:1054E00080BD000080B584B040F21060C2F20000C0
:1054F00000686A46142191600221516003A911607D
:1055000016210A220123FBF7E9FD48B9FFE79DF8C0
:105510000C009DF80D1040EA0120ADF80E0003E0EC
:105520000020ADF80E00FFE7BDF80E0004B080BD0E
:1055300080B584B040F21060C2F2000000686A4694
:10554000142191600221516003A9116016210922E2
:105550000123FBF7C3FD48B9FFE79DF80C009DF858
:105560000D1040EA0120ADF80E0003E00020ADF878
:105570000E00FFE7BDF80E0004B080BD80B540F618
:105580000000C4F201000121FBF73EF980BD0000DC
:1055900080B582B0FEF780FD40F2DC00C2F2000070
:1055A000C07801460191042800F29F800199DFE84C
:1055B00001F0031C35757F0040F2DC00C2F20000F0
:1055C000807848B9FFE740F2DC01C2F20001012017
:1055D000C8700020087107E040F2DC01C2F200014F
:1055E0000020C8700871FFE780E040F2DC00C2F2E2
:1055F0000000807848B9FFE740F2DC01C2F2000108
:105600000220C8700020087107E040F2DC01C2F2FD
:1056100000010020C8700871FFE767E040F2DC007D
:10562000C2F20000807890B9FFE740F2DC00C2F2DD
:105630000000008869280ADBFFE740F2DC01C2F2C3
:1056400000010420C87000200871088025E040F2A5
:10565000DC00C2F200008078A0B9FFE740F2DC0075
:10566000C2F20000008868280CDCFFE740F2DC0191
:10567000C2F200010888013008800220C8700020B2
:10568000087109E040F2DC01C2F20001002008804C
:105690000322CA700871FFE7FFE727E040F2DC0150
:1056A000C2F2000100200880C870012008711DE0CE
:1056B00040F2DC00C2F20000807858B9FFE740F207
:1056C000DC01C2F200010420C87002200871002031
:1056D000088009E040F2DC01C2F200010020C8703D
:1056E00002220A710880FFE700E0FFE702B080BDF8
:1056F00080B582B08DF807008DF806109DF8070080
:1057000001380146009103282CD80099DFE801F008
:10571000020C16209DF8062040F60000C4F201009D
:105720004021FBF79DF81EE09DF8062040F60000A2
:10573000C4F201008021FBF793F814E09DF80620E5
:1057400040F60040C4F201000121FBF789F80AE0AD
:105750009DF8062040F60040C4F201000221FBF74C
:105760007FF800E0FFE702B080BD000080B588B0A0
:105770008DF81F009DF81F0001380146069103288F
:105780004ED80699DFE801F00214273A012005906F
:105790000021FFF7ADFF05990220FFF7A9FF05994A
:1057A0000320FFF7A5FF05990420FFF7A1FF38E0CC
:1057B0000120049000210391FFF79AFF0399022032
:1057C000FFF796FF04990320FFF792FF0499042046
:1057D000FFF78EFF25E00120029000210191FFF7E5
:1057E00087FF01990220FFF783FF01990320FFF74C
:1057F0007FFF02990420FFF77BFF12E001200021C8
:105800000091FFF775FF00990220FFF771FF0099E3
:105810000320FFF76DFF00990420FFF769FF00E008
:10582000FFE708B080BD000080B582B00020019085
:10583000FBF722FFFEF786FEFEF77CFCFEF700FD7D
:1058400040F2BC50C2F20000FAF7A2FD00F034F8BA
:10585000FEF73AFC00F068F8FFE7FEE780B586B097
:105860000290EFF3058003900398A0B9FFE7EFF3F0
:1058700010800490049870B9FFE740F2B820C2F29B
:105880000000006802280AD1FFE7EFF311800590BD
:10589000059820B1FFE76FF00500019009E00020B6
:1058A0000190029820B1FFE7029801F011FCFFE798
:1058B000FFE7019806B080BD84B0EFF3058001904A
:1058C0000198A0B9FFE7EFF310800290029870B939
:1058D000FFE740F2B820C2F20000006802280AD1B7
:1058E000FFE7EFF311800390039820B1FFE76FF01B
:1058F0000500009014E040F2B820C2F200000068F9
:1059000048B9FFE740F2B821C2F200010120086067
:105910000020009003E04FF0FF300090FFE7FFE72A
:10592000009804B07047000080B584B0EFF30580A4
:1059300001900198A0B9FFE7EFF310800290029860
:1059400070B9FFE740F2B820C2F2000000680228F8
:105950000AD1FFE7EFF311800390039820B1FFE72E
:105960006FF00500009017E040F2B820C2F200008E
:10597000006801280BD1FFE740F2B821C2F2000114
:105980000220086001F042FC0020009003E04FF08C
:10599000FF300090FFE7FFE7009804B080BD0000F3
:1059A000B0B590B00B900A91099200200590EFF3EA
:1059B00005800D900D98002840F0B580FFE7EFF3CB
:1059C00010800E900E98002840F0AD80FFE740F266
:1059D000B820C2F200000068022808D1FFE7EFF308
:1059E00011800F900F98002840F09D80FFE70B98E2
:1059F000002800F09880FFE74020069018200490CF
:105A000000208DF823000DF1230007904FF0FF30A8
:105A10000390099800284DD0FFE70998006820B14D
:105A2000FFE7099800680790FFE70998806920B1AF
:105A3000FFE7099880690490FFE7049848B1FFE701
:105A40000498382805D8FFE709980079C00718B1ED
:105A5000FFE700200C9069E00998406928B1FFE752
:105A60000998406980080690FFE70998806880B12E
:105A7000FFE70998C0685C280BD3FFE70998006925
:105A800038B1FFE70998406918B1FFE7012003909A
:105A90000FE00998806858B9FFE70998C06838B9DD
:105AA000FFE70998006918B9FFE700200390FFE7B6
:105AB000FFE702E000200390FFE70398012817D1D9
:105AC000FFE70B980799069A0A9BDDF810C0DDF8EE
:105AD00024E0DEF80850DEF81040EE46CEF808501C
